:020000040800F2
:1000000000400020C5F900087595000877950008A4
:1000100000000000000000000000000000000000E0
:1000200000000000000000000000000079950008BA
:1000300000000000000000007B9500087D9500088E
:1000400015FA000815FA000815FA000815FA000854
:1000500015FA000815FA000815FA000815FA000844
:1000600015FA000815FA000815FA000815FA000834
:1000700015FA000815FA000815FA00088595000819
:1000800015FA000815FA000815FA000815FA000814
:1000900015FA000815FA000815FA000815FA000804
:1000A00015FA000815FA000815FA000815FA0008F4
:1000B00015FA000815FA000815FA000895950008C9
:1000C00010B5064C2378002B07D1054B002B02D02E
:1000D000044800E000BF0123237010BD5803002036
:1000E0000000000088740108044B10B5002B03D0F9
:1000F0000349044800E000BF10BDC04600000000F6
:100100005C030020887401080023C25C0133002ACC
:10011000FBD1581E7047000010B50100024800F0E6
:100120008BFA002010BDC046A012002010B5024876
:1001300000F08CFA002010BDA012002010B50100C4
:10014000014800F087FA10BDA012002010B50F245E
:1001500084B06C44019200940A000100034800F04E
:100160001FFD0020205604B010BDC046A012002084
:1001700010B50F2484B06C44019200940A00010071
:10018000034800F069F80020205604B010BDC046B6
:10019000A012002000B583B0009313000A000100F4
:1001A000024800F061FC03B000BDC046A012002070
:1001B00000B583B0009313000A000100024800F06C
:1001C000A1FC03B000BDC046A012002030B587B02E
:1001D00005AC039413240A9D6C440093029413000D
:1001E00001950A000100054800F048F900200B9B2A
:1001F000059A1A60205607B030BDC046A0120020F4
:1002000030B587B005AC039413240A9D6C44009369
:100210000294130001950A000100054800F09EF9C0
:1002200000200B9B059A1A60205607B030BDC046CF
:10023000A012002010B50F2484B06C4401920B0072
:1002400002000094034800F01DFA0020205604B07C
:1002500010BDC046A0120020F0B5454657464E4698
:10026000DE4698460023E0B58BB01700149A0500CF
:10027000137043461B788946002B1CD00023BA46D6
:10028000012247469C46002600248046159D0021F9
:100290000020744BD3181B01EB181860596061469D
:1002A0009E8199609C7301323B78D2B29342EED228
:1002B0004546B8465746002F64D0002303930133C8
:1002C00001249A46AB4636E0674950461941084238
:1002D0003AD0514699400B000399194200D099E059
:1002E0000399A8681943614B03919C466244013A03
:1002F000137804909E000593E1235E449B00F1581F
:1003000005F0DCFA002800D07FE0E9239B00F158DB
:10031000049805F0E7FA002800D076E0059B2A68EB
:100320003E33DB005B4419688A4200D190E001341F
:10033000E4B2A74215D34B4BE5182D014D446A7B1F
:10034000531EDBB2172BBFD9FF230027149A13705B
:1003500043461F700BB03CBC90469946A246AB4644
:10036000F0BD5D464C460126A368617B0093226880
:100370006368280002F0D0FA33000136F6B2103478
:100380009F42F1D1280001F083FD43461F78002FE2
:1003900045D0374A0023924601229146354A00272C
:1003A000934602E02300152C27D0524649461A41B5
:1003B0005C1CE6B21142F5D05A46D35C9C33FF3345
:1003C0005B005A5B2C4B9A42ECD03100280002F0C3
:1003D00093F90028E6D004AA94460B2363440093C3
:1003E000310008AB280007AA02F062F943461B78E7
:1003F000BB4218D80323149A1370C52300229B0014
:100400002800EA5000F078FEA2E7FE23149A0027A5
:1004100013709DE7FA23149A0027137098E70223BC
:10042000149A1370E9E7159A0E4B94460137FFB200
:10043000FB18079A1B0163449A604A461A7304AA80
:10044000D27A5E739A730899099A19605A60A9E77B
:100450006A685B689A4200D069E70422149B1A70AC
:1004600065E7C046FFFFFF0F0F20E000448C010846
:10047000EF7912002C8C0108FFFF0000F0B5574601
:100480004E46DE461D00DF23C0B584B017000E9A2D
:100490000600137000230F9A136010330393172D77
:1004A0002CD90E9B00293CD12B4A1970924601226F
:1004B000914600220023934602E023000A2C23D019
:1004C00052461A415C1C13004A46E1B21A42F4D06B
:1004D0005B46300000930C9A0D9B02F011F8031E4E
:1004E000EBD00D9A290001920C9A3800009203AAD1
:1004F00000F0DCFD0E9B18700028DED004B01CBCA0
:1005000091469A46A346F0BD0E9B1B785BB2002B2A
:10051000F4D130000D9A0C9900F096FF031E0ED115
:100520000E9B00241C57002CE8D10F9B039A190046
:100530001A60380000F036FF0E9B1C70DEE70D9A43
:10054000290001920C9A3800009203AA00F0AEFD37
:100550000E9B04001870E6E717030000F0B557463D
:100560004E46DE461D00DF23C0B584B017000E9A4C
:100570000600137000230F9A136010330393182D95
:100580002CD90E9B002939D12A4A19709246012292
:10059000914600220023934602E023000A2C23D038
:1005A00052461A415C1C13004A46E1B21A42F4D08A
:1005B0005B46300000930C9A0D9B02F00DF8031E71
:1005C000EBD00D9A290001920C9A3800009203AAF0
:1005D00000F06CFD0E9B18700028DED004B01CBC2F
:1005E00091469A46A346F0BD0E9B1B785BB2002B4A
:1005F000F4D100F09BFF031E0ED10E9B00241C576C
:10060000002CEBD10F9B039A19001A60380000F000
:10061000C9FE0E9B1C70E1E70D9A290001920C9A0D
:100620003800009203AA00F041FD0E9B04001870F0
:10063000E6E7C0461703000001230B7003334B703D
:1006400004338B700023CB707047C04610B500F0A8
:1006500093FC10BD013910B50400032901D9002015
:1006600010BD683003F04AFB2000012102F006FAB9
:10067000034B022120002366636602F0FFF9EEE7D8
:100680000000C841F0B5DE46574645464E46E0B547
:1006900089B003930023139D0292129AAB60EB6022
:1006A0002B612B751370C84B0400C35A9B4600F096
:1006B00023FDDC239B009A46A24453461A685B68DC
:1006C0001100194334D002980399801A994104907B
:1006D0000591BE4B0022E65A0020BD4BBD4913F0E8
:1006E0008DFF04F063FD05F099F93200002305F059
:1006F00031F90B0702091A430B1190469C46020080
:100700000B0006000F0004980599121A8B416345EF
:1007100000DD78E100D173E104980599801BB941AF
:10072000614502DC04D1404502D96423129A13705A
:10073000002200232A606B600023AB60EB602B611A
:100740002B7504AB9C460D260E2766446744330088
:100750002A0001212000009700F0DAFC3B8899462E
:100760003378002B05D09C4BE35C6B749B4BE35CB4
:10077000AB7433002A0002212000009700F0C8FC6F
:100780003B881A1C4B4500D9DEE093B2984633787B
:10079000002B06D09B23DB00E35CEB748F4BE35C08
:1007A000AB7433002A0003212000009700F0B0FC56
:1007B0003B881A1C434500D9BEE093B29946337872
:1007C000002B02D0854BE35CAB74330004212A007C
:1007D0002000009700F09CFC3B88191C4B4500D979
:1007E000A4E08BB25B4500D99EE0DE2292009146E8
:1007F0008BB298463378A144002B28D001232B7468
:10080000774B0021E65C363B7600A619F35AAB81A4
:100810009B23DB00E35CEB74704BE35CAB74714BCC
:100820005B7DA9339B00185905F042F8002800D1E0
:1008300092E06D4BE35C002B00D08DE09323DB0056
:10084000F35AEB814946029A039B0A604B60029A75
:10085000039B51460A604B60644B41469B46E35AFA
:1008600018009A4604F0EAFE43465E1A574BB6B2A9
:10087000E6520433E15A5346F018398080B204F04E
:10088000DDFE5B460022E1520020514B514913F03E
:10089000B5FE04F08BFC05F0C1F83200002305F032
:1008A00059F8029E039F002236184F414E4B2E608E
:1008B0006F603000E25439004B461A685B68801A5A
:1008C000994105F0E7F84A4905F0EAFA4949051C5B
:1008D00004F0F4FF002809D06522474BE25409B028
:1008E0003CBC90469946A246AB46F0BD4349281C05
:1008F00004F0F8FF0028EFD1E023300039009B001E
:10090000E3181A685B68801A994105F0C3F8384902
:1009100005F0C6FA374904F0D1FF374B002800D163
:1009200091E06622E254DAE759465EE749468BB227
:100930005B4500D859E7F7E7424693B299463378CA
:10094000002B00D141E73DE74A4693B29846337801
:10095000002B00D125E71DE7DE239B0099460833D5
:10096000A144E6184B46716830681A685B68994282
:1009700064DD02000B0002980399801A994105F08A
:1009800089F81B4905F08CFA00F0D2FD164BE8817E
:10099000E35C002B59D0FE239B0500931621029A9D
:1009A000039B200001F0B8FF8023AA689B03134338
:1009B000AB600D4BE35C002B00D143E7029A039B35
:1009C0003260736043E7C0468E0400008C04000070
:1009D00000001C4000002440D9040000D70400009F
:1009E000D6040000448C0108DB040000D40400009D
:1009F000286B6E4E00007042DC0400000000704363
:100A0000424500D888E653461E685F68134B0022B3
:100A1000E45A0020124B134913F0F0FD04F0C6FB1A
:100A200004F0FCFF2200002304F094FF6423361836
:100A30004F41129A2E606F60137050E799429AD11D
:100A4000904298D995E7E05449E700231621009396
:100A50002000029A039B01F05FFFAAE78C040000CC
:100A600000001C4000002440F0B5DE464E464546DE
:100A70005746E0B589B01D00129B16248846160023
:100A80009A466C4406AB009381469B464046230041
:100A90005246310000F09CFF00202056002827D14C
:100AA0001727083E6F4407E02A004846079B01F0DD
:100AB000C5F9207000281BD1069BB3421FD207AB9B
:100AC000404602932A00534659460197009400F08D
:100AD00077FD0020205600280AD13978FE29E3D17D
:100AE00029004846079A00F0EDFF20700028E3D067
:100AF00009B03CBC90469946A246AB46F0BD0020EA
:100B00002056F5E7F0B5DE464E4645465746E0B579
:100B100089B01D00129B16248846160099466C4425
:100B200006AB009383469A46404623004A4631006E
:100B300000F04EFF00202056002826D11727083E3F
:100B40006F4407E02A005846079B01F0BBFE207067
:100B500000281AD1069BB3421ED207AB404602932F
:100B60002A004B4651460197009400F029FD0020D1
:100B70002056002809D13978FE29E3D128000799A9
:100B800001F074F820700028E4D009B03CBC904615
:100B90009946A246AB46F0BD00202056F5E7C04678
:100BA000F0B5DE464E4645465746E0B58DB0039358
:100BB00000239346169A05AE1370AE4A030094467E
:100BC0006344009088461C22190030000EF04EFF4E
:100BD0005B46002B00D0A0E00C23169A1370310066
:100BE000009800F0CDFA169B002800D040E10020CC
:100BF0001856002800DAC3E09F4A00239046009A66
:100C0000012591469D4F3A001A415C1CE1B2154204
:100C10000FD042469A48D35C84465A1E63445B0018
:100C200052004B44B25A5B88934202D0484600F0CF
:100C300007FD2300152CE6D1039B1B78072B00D85A
:100C4000A3E0002201928F4A0023924603E05B4614
:100C5000182B00D19EE05A1C9346D1B28A4A012734
:100C60001A411742F3D0019A9F400132D2B21000CC
:100C70008446179801928046844A5B466244D200BB
:100C80009044424611714146814A00240125BB46E9
:100C90007A4E0A6002930EE058887E4B984207D045
:100CA00005F0D0FD011C7C4805F0FAF843461860B9
:100CB0000134152C2ED0330023411D42F8D052466A
:100CC000A300D3585A461342F2D043461F687049D6
:100CD000381C04F0EDFD6A4A674B94461B5D009A90
:100CE000634494465B0063440028D5D1588805F0DE
:100CF000A9FD011C684805F0D3F88146011C381C89
:100D000004F0DCFD0028D3D043464A4601341A6083
:100D1000152CD0D1029B9B4699E743461B79013B9A
:100D2000012B00D88FE0002301259A465F4612E090
:100D30005249012219410A4216D09A4053461340A3
:100D40000193534613422FD0F323169A13700135A3
:100D5000EDB2AF420FD34D4BEC18E400444423797D
:100D6000013BDBB2142BE3D90A23169A0135EDB20D
:100D70001370AF42EFD2169B1B787F2B00D82EE763
:100D8000039B1B78072B00D95BE7F123169A13709E
:100D900000230193039B019A1A700DB03CBC90464E
:100DA0009946A246AB46F0BD13439A4623680021FC
:100DB000181C994604F07CFD00282AD0F623169AC8
:100DC000002113702368181C99469B4604F070FD9F
:100DD00000281ED00021584604F084FD002863D16D
:100DE0005846002104F064FD43425841404283B21A
:100DF0009B46169B1B785BB2002BA8D11E4A237919
:100E000094465A466344013B1B78013B5B00F25217
:100E10009DE748461E4904F04BFD002800D084E0C1
:100E200048461E4904F05EFD002806D148461C498C
:100E300004F044FDCB460028CCD0F223169A137060
:100E400023689B46C6E743460021186804F030FD3E
:100E5000002800D167E7134B32889A4267D0728826
:100E60009A4264D00B23169A13700023019391E7E2
:100E70001870BEE6AA0400002C8C0108EF7912005D
:100E800053020000D88B01080F20E000FFFFFF1F76
:100E900000FF7F47FFFF00000000C8420000204124
:100EA0000E74DA3A3075000058462C4904F006FDFD
:100EB000002895D059462A4804F0F2FF13F03CFB75
:100EC00004F076FD83B29B465346C246A0465C467C
:100ED000AB46B946019F0293224A434694461B798A
:100EE000009A6344013B1B78FB18E433FF335B003B
:100EF0009D5A280007F0F8FA1B4B1C4A06F070FCBC
:100F000004F054F904F06CFD80B22B1A9BB2A3429A
:100F100018D82D18ADB2A54214D3029B5D464F469A
:100F2000A3464446D0469A4663E7CB4658E7104B63
:100F30000099CB56002B96D101220E4BCA540023A8
:100F4000019327E70E37542FC6D1029BD0469A460D
:100F5000F423169A5D464F461370F8E600FF7F476C
:100F60000000C8422C8C0108E17A843F7B14AE4714
:100F7000DC040000DB04000010B5040000F0DEFE1D
:100F8000200000F0E5FC200000F07AFB200010BDFE
:100F9000F8B54546DE4657464E46E0B5060001F038
:100FA00055FC384A002301259046374F02E02300C4
:100FB000152C13D03A001A415C1CE1B21542F6D050
:100FC0004246D35C314A3000944663445B00F318D8
:100FD0005A8801F0EFFC2300152CEBD1300001F012
:100FE00095FB294B00249946264B9A46284B9B4655
:100FF00002E00134152C20D04B462341DB07F8D505
:101000005346244A1B5D9446F31863441B78002B17
:10101000EFD05A466300D35E01279846002302E0D2
:101020002B000A2DE5D042461A415D1CE9B2174259
:10103000F6D0300001F090FCF2E70024164B0E22AF
:10104000F454164B0021F0180EF019FD144B154AFC
:10105000F454154BB118DB789433FF335B00985B85
:1010600000235A008A5A0133824207D0042BF8D158
:101070003CBC90469946A246AB46F8BD084AB354DC
:10108000F6E7C0462C8C0108EF79120053020000ED
:10109000AC8B0108C5040000DA040000C60400009F
:1010A000D604000092040000448C0108F0B51568D5
:1010B0009C46EB188B4219D806998C4519D8614685
:1010C000002910D063460599012401334F1E00E02A
:1010D000156801193E5D4919013901340E709C42B1
:1010E000F6D11368634400201360F0BD292040420C
:1010F000FBE726204042F8E7044B10B5C35C002B09
:1011000000D110BDFFF744FFFBE7C046DA04000042
:10111000F0B51F000023C6463B70154B4E1E9C5D6C
:1011200000B59434FF346400069B215A05001980F1
:10113000104B9046994212D00F4BC05A04F07EFAE1
:1011400089B200290ED10123FF211A000E40414629
:10115000B24089683B700A4341468A600B7504BC03
:101160009046F0BD054BEB5C002BF8D0EBE7C0469A
:10117000448C0108FFFF0000D4040000DB040000E1
:10118000F8B54E4657464546DE46E0B507007A4A72
:10119000E1240D00002301219446B9467748784E9A
:1011A000E40002001A41114200D1C7E0754FF25C21
:1011B000B84642445200525BA24200D1BEE06245B2
:1011C00000D1BBE04F46704B0121FB5AC8469C46FC
:1011D0001C000023694802001A4111420AD0694FDD
:1011E000F25CB9464A445200525B171CA24200D935
:1011F000271CBCB20133152BEDD15F4B47469946F6
:101200009C4227D02100604604F018FA89B20029D8
:1012100000D0ADE000239846584B9B4601239A46E8
:101220004346A0461C005B46524623411A420ED05C
:10123000544A335D944663445B00585B484506D08E
:10124000414604F0FBF989B2002900D090E0013456
:10125000152CE8D1494C0820A0460124464900231A
:101260008346A4468946494A58461468044204D035
:10127000444660461C41204267D101330432152B9D
:10128000F2D13D4B99425ED0414A0023B81802E0AA
:101290000133042B57D05A00825A8A42F8D1932244
:1012A0009200944663445B00FB185C880434A4B24B
:1012B00000239846314BA1469B464446AA465B46CE
:1012C000012223411A422FD02E4A335D94465246C2
:1012D00063445B009B5A1800984605F0B3FA2D4B07
:1012E000051CF85C2C4B4000FA5CC0B25200013B7C
:1012F000D2B28218F85C4000C0B28018484480B274
:1013000005F0EEFA254904F093FF254904F0C8FDE5
:10131000011C281C04F0D2FA002805D0164B984571
:1013200002D01220404203E00134152CC7D1002026
:101330003CBC90469946A246AB46F8BD0133152BFE
:1013400000D02EE7F3E70424B2E70E48F45C8246AF
:1013500054446400645B4C4500D18EE7494505D098
:10136000A14200D189E711204042E1E7210084E752
:1013700010204042DCE7C046FFFF0000EF7912007A
:101380002C8C0108FFFFFF7F8E040000D88B010822
:1013900092040000D7040000D90400000000C842F5
:1013A00000007A4470B588B0264B03AE04000D00EF
:1013B000042202A9300002930EF058FB0B210123F6
:1013C000601E6944CA5CC2540133052BFAD1002364
:1013D0003D2204A90492059306A8353A0EF046FB77
:1013E00006A90822201D0EF041FB2B6802A9103B24
:1013F0000422300002930EF039FB3378200023736F
:10140000737801AA6373B378A373F378E3732968DD
:1014100003F080FF6A462B681279E3181A716A4656
:101420002B685279E3185A7100222B68E3189A71DD
:101430002B689C466444E2712B6808332B6008B02B
:1014400070BDC04600080401F0B54646D6464F467A
:10145000C0B584B090466A46D61D07220700327098
:10146000FE2032000D0003F05DFE33780390002B68
:1014700017D0294B01249946284B9A46072C0AD8A5
:101480004A46A300D3589F4653464246F85A29007D
:1014900003AB01F0AFFB01343378E4B2A342EDD2E9
:1014A00003980A2169440880022202A80EF0DEFA9D
:1014B0006B461B7A03982B706B465B7A6B7004B09B
:1014C0001CBC90469946A246F0BD8E20C000424604
:1014D000290003AB381801F081FEDCE79B23DB0019
:1014E000F85C4246290003AB01F02EFCD3E70C4B1D
:1014F000F6E70C484246290003AB381801F008FE15
:10150000C9E7094BECE7F22080004246290003AB13
:10151000381801F025FEBEE7287501088E0400008A
:10152000D704000092040000D90400000020704796
:10153000812170B5C905041C13F0B6F91949051CC1
:10154000201C13F0B1F91849061C281C04F070FE89
:101550001649051C301C04F06BFE011C281C04F00D
:1015600001FB211C051C201C04F062FE104904F044
:101570005FFE011C281C04F0F5FA0E49051C201C16
:1015800004F056FE011C281C04F0ECFA0A4904F091
:10159000E9FA0A4904F04CFE12F0CEFF04F008FA12
:1015A00080B270BD00004040598207B0DFE0C23415
:1015B0003767D9B85A8E863C6A92E43E00007A4476
:1015C000F0B5C6461C00002300B582B01700089A8B
:1015D0000D001370099A060013700A686946835C4F
:1015E00082180B71537802224B7106236B44984684
:1015F000180001A90EF03AFA43461A880A9B1A60AD
:10160000A24218D80124791E002A09D0286833196B
:1016100084466344013B1B780B550134A242F5D24A
:10162000BB7809990B702B689C4662442A6002B013
:1016300004BC9046F0BDE023089A1370F7E7C0465B
:1016400010B595240B4BE4005B18013B1B78591E29
:101650005B00C3181C5B944205D0074C4118A4469C
:10166000012461440C709521C9005A520122034B98
:10167000C25410BD2C8C0108C6040000DA0400001E
:10168000F8B50222DE464E4645465746864BE0B543
:10169000C254864A0133C252854B05001822C01835
:1016A00084490EF0E3F9F2239B00EC180122A833E1
:1016B000EE18230052421A8002339E42FBD17E4B29
:1016C00087209C4662467D4B7D49EA507D4A043323
:1016D000EA527D4BC0009A46F82352469B00EA50DE
:1016E0007A4B57469B46F9235A469B00EA500433EF
:1016F000EA5052460433EA50754A0433EA505A46D7
:101700000433EA500833EA500433E950714B724A0B
:10171000E9500433E950714BE9500433E950083380
:10172000E9506F4BEA500433EA506E4BEA500433F1
:10173000EA506D4BEA506D4BEA506D4B2B506D48A3
:101740002B5004302B506C482B5004302B50083059
:101750002B5088382F5004302F505F4604302F50C4
:10176000043080466548814640464F462F505746D4
:1017700004302F505F4604302F50FE275046BF00E4
:10178000E8515F4829508621C9006A505D4A5E4988
:10179000AB508D236246DB00EA50E03B4022E81864
:1017A0000EF064F9E423594A9B00EA50E322002337
:1017B0009200AB505649043AAB500C32A950083253
:1017C000AB500432AB500432AB50EC23514A9B0077
:1017D000EA50514A043BEA50504A043BEA50504A0E
:1017E0000C33EA508023EF22DB059200AB50043229
:1017F000AB50F1234B4A9B00EA504B4A3300A918E7
:10180000012252421A8002338B42FBD1474B484A95
:101810009221EA520023C90046486B522388834232
:1018200003D06A5A9A4200D26B520234A642F5D1D2
:10183000414A95269346414A00239046404A01205A
:101840009446404AF60091465A461A41104211D039
:1018500042466746D25C511E5200AA18D75B945B81
:10186000BC4204D0384C6918A246514408709753C2
:101870004A46A8540133152BE6D1344A324BA918F5
:101880000122EB181A7001338B42FBD12D4BEB5C1C
:10189000002B05D13CBC90469946A246AB46F8BD0C
:1018A0002800FFF775FBF5E7D704000001050000ED
:1018B000920400004C8B0108DC05DC055C04000090
:1018C0002C012C01DC0500003075307564006400CB
:1018D0003075640004040000080708070C040000C9
:1018E0001C040000240400002C0400003404000048
:1018F000701770173C040000440400006400307549
:10190000140400004C0400000C8B0108000082C28B
:1019100000002A430000FA420000C8420024F449B3
:10192000806A494B000010418C0400008E040000C6
:1019300030750000FFFF0000EF7912002C8C0108C9
:101940006E040000DA040000C6040000D4040000A5
:101950000023174A30B58354164A01248352DC23EE
:101960009B000022C11800230A604B60DE21890021
:1019700041180A604B60E021890041180A604B6001
:101980000C490D4B451800210C4A6442C2520C4BC5
:10199000C2180C4BC3181480197001330232AB42C9
:1019A000F9D16622084BC152084BC25430BDC04623
:1019B000D6040000D40400008C0400003075000040
:1019C000AA040000C6040000DA040000DC040000E1
:1019D000F0B5002689B01D000E9B07000C001E60AC
:1019E000172903D8DB232B7009B0F0BD914216D81C
:1019F0000B2001226844791E8B5C83540132052A36
:101A0000FAD1013A03A902A80EF030F8029B2C4A41
:101A1000934207D0013305D0DE232B70E4E7DA23AD
:101A20002B70E1E70822391D06A80EF01FF80822E6
:101A300006A904A80EF01AF8049B059A3D2B04D0C1
:101A4000013302D0DD232B70CEE7002AFAD16A469B
:101A50003B7B03A913737B7B02A85373BB7B9373FC
:101A6000FB7BD37304220EF001F802990B001833AC
:101A7000A34202D0D8232B70B6E701AA3800103158
:101A800003F048FC6A463C19231F12791B789A42DE
:101A900002D0DC232B70A7E76A46E31E52791B783D
:101AA0009A42F6D1A31E1B78002BF2D1013C237879
:101AB000002BEED110220E990A602B7094E7C046DD
:101AC00000080401F0B5DE464E4645465746E0B5EF
:101AD000BDB004AB0193994603AB00930B23050003
:101AE0006B44FE200C0003F0F3FA6B460B201856F3
:101AF00000285CD1F2239B009846A833EE184F4B88
:101B000001279B464E4BA8449A46072F00D988E0F0
:101B10005246BB00D3589F464946200001F054F876
:101B2000484BE85292200023C0002B524346464CBB
:101B30001A88A24203D0295A914200D22A52023373
:101B40009E42F5D1414A95269346414A002390464C
:101B5000404A01209446404AF60091465A461A41AE
:101B6000104211D042466746D25C511E5200AA185C
:101B7000D75B945BBC4204D0384C6918A2465144F0
:101B8000087097534A46A8540133152BE6D1344ABE
:101B9000324BA9180122EB181A7001338B42FBD18A
:101BA0002D4BEB5C002B45D16B460B2018563DB0FE
:101BB0003CBC90469946A246AB46F0BD4946200043
:101BC0000BAA01F0A7F91C2230000BA90DF04EFF63
:101BD0000137FFB299E74946200012AA01F05CF9EB
:101BE000A822404612A90DF041FFF1E74946200026
:101BF00005AA01F013F91B4B182205A9E8180DF0EE
:101C000035FFE5E74946200001F08AF8164BE85415
:101C1000DEE74946200001F083F89B23DB00E8540F
:101C2000D6E74946200001F07BF85B46E854072FD1
:101C3000CED177E72800FFF7ABF9B5E7D70400006E
:101C4000487501088E040000FFFF0000EF791200C4
:101C50002C8C01086E040000DA040000C6040000A9
:101C6000D404000092040000D904000010B5040060
:101C700082B0032914D96A46037801A91371437805
:101C800053716B460222981D0DF0F0FEA078FE38CD
:101C900043425841642340421840643802B010BDAA
:101CA00068204042FAE7C046F8B5CE4647461C4B8E
:101CB0004E1E9C5D1B4B64000419E25A1A4B050032
:101CC00080B59A420AD0C627BF00C3597200984611
:101CD000164BD35E42461A40934204D000200CBCFF
:101CE00090469946F8BD124B9A57C0239B00C358A3
:101CF00013409A42F2D10F4B9946E05A0E4B0130F5
:101D0000E15A80B203F09AFC4B4689B2E1520029B5
:101D1000E4D101234246B34013430120EB51DEE7F7
:101D2000848B01081A030000FFFF0000648B010888
:101D3000788B01085E03000052030000F8B5040030
:101D400002F0EAF82000B130FF3002F0C9FF2000B5
:101D50002C3002F009FB2000683001F0F1FA20007D
:101D60004930FF3002F0CEFD2000E1300A21FF3083
:101D700002F0B0F9B221AA232200890066180025DA
:101D8000002000219B00F932E318FF3220C303C278
:101D9000B342FBD1C02200219200A150224900276A
:101DA0008C46002000210025C83AA618CC32A21883
:101DB000A44480C303C6157001326245F9D1C5231E
:101DC0009B00E5500433E5500433E2184433E11836
:101DD000383BE6180123012500205B421587088067
:101DE0001380023202319642F8D1CA229200A352E5
:101DF0000E4AA3520232A3520D4AA3520232A352F8
:101E00000C4AA3520232A3520B4AA3521E32CE23D3
:101E1000A11801229B00E31852421A8002338B4220
:101E2000FBD12000F8BDC046120300002A030000C9
:101E30002E030000320300003603000010B50C0032
:101E400011001A000A2C03D8104BA4001B599F46FE
:101E50006420404210BDE130FF3002F047F9F9E75D
:101E6000683001F0F9FAF5E72C3002F0EDFCF1E70B
:101E700002F05EF8EEE7B130FF3003F007F9E9E772
:101E80004930FF3002F086FDE4E7C046687501087E
:101E9000F0B557464E46DE4645460023E0B59FB0B6
:101EA00002AA9376D376C62200269200052183509B
:101EB000070009960A960B96189619961A961B967D
:101EC0001C961D960C960D96FFF7EEFE002808D086
:101ED000B1239B00F858311C03F0EAFC002800D025
:101EE00062E1AE4B01249946AD4D644203213800B6
:101EF000FFF7DAFE002808D0B1239B000021F85834
:101F000003F0D6FC002800D0BAE101213800FFF729
:101F1000CBFE002808D0B1239B000021F85803F025
:101F2000C7FC002800D0BEE102213800FFF7BCFE4C
:101F3000002808D0B1239B000021F85803F0B8FC1A
:101F4000002800D0EDE109213800FFF7ADFE0028A0
:101F500008D0B1239B000021F85803F0A9FC002809
:101F600000D08DE200260A213800FFF79DFE0028F0
:101F700008D0B1239B000021F85803F099FC0028F9
:101F800000D0D9E04B465B791A009C32FF325200F8
:101F9000D15B844A5C1E914205D0C0229200BA589F
:101FA000520700D5A5E04B469B791A009C32FF32C0
:101FB0005200D15B7B4A5C1E914205D0C022920048
:101FC000BA58D20700D571E04B46DB791A009C3233
:101FD000FF325200D15B734A5C1E914204D0C02292
:101FE0009200BA5892073ED44B461B7A1A009C3294
:101FF000FF325200D15B6B4A5C1E914204D0C0227A
:102000009200BA5812070AD4C02300229B00FA504B
:102010001FB03CBC90469946A246AB46F0BD842218
:102020009200BA18AD25106851681A00AD00463309
:102030007D59B132DB009200FB18D5511860596010
:10204000002012F079FAC1239B009C463C1964449D
:1020500003F0AEFCC522802320709200B9585B00CB
:102060000B43BB50D0E780229200BA18AB25106812
:1020700051681A00AD0046337D59B132DB00920041
:10208000FB18D55118605960002012F055FAC12391
:102090009B009C463C19644403F08AFCC5228023C3
:1020A00020709200B9580B43BB509DE73A00F932BB
:1020B000FF32AA25106851681A00AD0046337D59D9
:1020C000B132DB009200FB18D55118605960002036
:1020D00012F032FAC1239B009C463C19644403F081
:1020E00067FCC522402320709200B9580B43BB50B7
:1020F0006AE782229200BA18AC25106851681A006B
:10210000AD0046337D59B132DB009200FB18D5514A
:1021100018605960002012F00FFAC1239B009C4602
:102120003C19644403F044FCC52220232070920033
:10213000B9580B43BB5036E782239B00FB181C6841
:102140005D68AC22AB23380092009B00E130B958A7
:10215000FB58321CFF3001F0E7FF4B469B7B099098
:102160001A005E1E4633B132DB009200FB18D051DC
:102170001C605D60002012F0DFF9C1239B009C46CB
:10218000BE19664403F014FCC5228023307092000F
:10219000B958DB010B43BB50F4E6C0462C8C010858
:1021A000FFFFFF7FFFFF000084239B00FB181C68DC
:1021B0005D6802AA0DAB944602931B23634401930E
:1021C00038001A23B130634422000093FF302B0003
:1021D00002F09EFDC94B9946DB7A984601235B428B
:1021E00043449A46B2339B009B4602AB987E04F070
:1021F00077FB5B46F85043464633DB00FB181C6018
:102200005D60301C12F098F9C1225346920090464E
:10221000FB18984403F0CCFB43461870C5239B0081
:102220009A4652468023BA581B0113435246BB506C
:102230004B461B7B9846013B0693B2339A0093466C
:1022400002AAD07E04F04CFB43465A464633DB00DC
:10225000FB18B8501C605D60301C12F06DF9069BD5
:10226000FE18C1239B009C46664403F0A1FB524626
:1022700080233070BA585B0113435246BB5035E699
:10228000AB23AC22AD210BA802900AA801909B00C1
:1022900009A8920089000090FB583800BA58795874
:1022A00001F064FE31E60CAB059318AB0493B02348
:1022B0009B00FB5800210393AF239B00F85803F0C9
:1022C000F7FA434258410290380002ABDB7E0A9A8B
:1022D000019302AB9B7E0999009368300B9B01F040
:1022E0001DF94B465B7C0C991A005E1E4633B132D9
:1022F000DB009200FB18D15100201C605D6012F0E1
:102300001BF9C1239B009C46BE19664403F050FB99
:10231000C522802330709200B9589B020B43BB50FA
:1023200002E6380016AB9846049314AB039312AB45
:102330009A460EAE029310AB9B460C990193009601
:102340000D9B18AA2C3002F03DF84B461B787068A4
:102350001A005E1E46330E99B132DB009200FB1864
:10236000D1511C605D6012F0E7F8C1239B009C46D0
:10237000BE19664403F01CFB3070C5260123B6006D
:10238000BA5910991343BB515B4658684B465B786A
:102390005A1E46339346DB00B2329200FB18D151ED
:1023A0001C605D6012F0C8F8C1225B469200934643
:1023B000FB189B4403F0FCFA5B4618700223BA59E1
:1023C00012991343BB51534658684B469B785A1E8B
:1023D00046339246DB00B2329200FB18D1511C60AA
:1023E0005D6012F0A9F8C122534692009246FB1894
:1023F0009A4403F0DDFA534618700423BA5914992D
:102400001343BB514B46DB7815985A1E4633924610
:10241000DB00B2329200FB18D1511C605D6012F0FB
:102420008BF8C122534692009246FB189A4403F05F
:10243000BFFA534618700823BA5916991343BB5173
:10244000434658684B461B7D5A1E46339046DB0078
:10245000B2329200FB18D1511C605D6012F06CF832
:10246000C122434692009046FB18984403F0A0FA1C
:10247000434618708023BA595B031343BB5162E58E
:1024800082239B00FB181A685B6806920793AC23B3
:102490009B00F9580833FB58380003936A23FB5A12
:1024A00049300293FF30069A079B00920193220065
:1024B0002B0002F0C3FA4B465B7B061C18005C1E27
:1024C0004633B130DB008200FB18D651002006995C
:1024D000079A19605A6012F02FF8C1239B009C469E
:1024E0003C19644403F064FAC522802320709200F2
:1024F000B9589B010B43BB5035E5C0462C8C0108F5
:10250000F0B5C6461700002200B584B098460AAB65
:1025100005001B7803920A2903D82E4A89005258D5
:102520009746002004B004BC9046F0BDE13042461E
:102530003900FF3001F040FEF4E7424639006830D0
:1025400001F0DAFAEEE7424639002C3002F03EF8AC
:10255000E8E76A46D61D0122390032700078320061
:1025600002F0E0FD33780390002B15D001242035D4
:1025700004E001343378E4B2A3420CD3012CF8D147
:1025800003AB42463900280000F0C0FA013433782A
:10259000E4B2A342F2D203980A21694408800222DD
:1025A00002A80DF063FA6B461B7A03983B706B46EA
:1025B0005B7A7B70B6E7B13042463900FF3002F0FB
:1025C00037FCAFE7493042463900FF3002F0CCFA21
:1025D000A8E7C04694750108F0B5C646170000226A
:1025E00000B584B098460AAB05001B7803920A290F
:1025F00003D82E4A890052589746002004B004BCE4
:102600009046F0BDE13042463900FF3001F010FE47
:10261000F4E742463900683001F0E2FAEEE742465C
:1026200039002C3002F046F8E8E76A46D61D012250
:10263000390032700078320002F074FD3378039074
:10264000002B15D00124103504E001343378E4B2B6
:10265000A3420CD3012CF8D103AB42463900280029
:1026600000F054FA01343378E4B2A342F2D2039872
:102670000A2169440880022202A80DF0F7F96B468E
:102680001B7A03983B706B465B7A7B70B6E7B13080
:1026900042463900FF3002F013FCAFE749304246B2
:1026A0003900FF3002F0C2FAA8E7C046C075010841
:1026B00070B50F4C0139645C2500B135AD002D5863
:1026C000156022004632D2008218156856681D60D7
:1026D0005E60084B04199C4664442378049A137086
:1026E0000123C5228B40920081589943815070BDCF
:1026F0002C8C010803030000C5239B00C35801393B
:10270000C9B20B41012018407047C046F0B54E4693
:10271000DE4657464546E0B5434B83469846434B15
:1027200000249946424F434E83B003E00134023700
:102730000A2C72D033002341DB07F7D53E4B1B5DDB
:102740005B005B441A0000933C4BD35A9A464345C6
:10275000ECD00023002501215846019432001A4193
:10276000114213D000243A5F1A4111420ED0324A6E
:10277000D25C8C32FF32520082189288424505D0DA
:102780009446AA4200D2AC46624695B201330A2B67
:10279000E4D18346BC46002301215F46019C2848C2
:1027A00002001A41114212D04A46A2561A41114261
:1027B0000DD0244AD25C9432FF325200D25B4245A3
:1027C00005D09346AA4200D2AB465A4695B2013391
:1027D000182BE5D1BB466746002DA7D029005046EF
:1027E00002F0A6FE290083B25046019302F026FFB4
:1027F00089B2002909D001226B0815405D19A94250
:1028000003DB0198013083B201930F4B009A0199C9
:102810000134D15202370A2C8CD103B03CBC904613
:102820009946A246AB46F0BDFFFF0000788B010839
:10283000648B010817030000848B01081A03000051
:102840000F20E000448C010852030000CA21C72376
:102850008900D82270B546180121012500249B006B
:102860009200C318821849421D87148019800233D0
:1028700002329E42F8D1D522CA2392009446012208
:102880009B00C1520B4B5242C1520233C1520A4B00
:10289000C1520233C152094BC1520233C152084BDB
:1028A000C1520233C31860441A8002338342FBD101
:1028B00070BDC0462A0300002E0300003203000052
:1028C0003603000010B50C0011001A000A2C03D8C2
:1028D000104BA4001B599F466420404210BDE130BC
:1028E000FF3001F0DFFCF9E7683001F09DFAF5E711
:1028F0002C3001F021FFF1E701F094FBEEE7B1305D
:10290000FF3002F039FBE9E74930FF3002F0CAF945
:10291000E4E7C046EC75010870B50E4C0139645C03
:10292000651EE4000419F134FF34266896420CD089
:10293000049EAA35AD002E500CC40123C0228B404A
:10294000920081580B43835070BD66689E42EFD160
:10295000FAE7C046448C01084A1E0B0010B5092A4C
:1029600012D8124A5218013A12788C32FF325200B1
:10297000821891880A2B07D80D4A9B00D3589F468E
:10298000E130FF3001F0ACFC10BD683001F0CEF951
:10299000FAE72C3001F0F2FEF6E701F067FBF3E70F
:1029A000B130FF3002F03AFBEEE7C046848B0108FD
:1029B00018760108F0B54E464546DE465746264B8A
:1029C00001395B5CE0B59C33FF335B001A528346F0
:1029D0002248002384462248012581462148224E70
:1029E00080464F0034001C4125420ED060463C5EBC
:1029F0001C41254209D048461C5C404664005C44AA
:102A0000205A904201D94046225201330A2BE9D183
:102A1000164800238046164801258446154E164F59
:102A2000890034001C4125420DD0CC591C4125425F
:102A300009D044466046E45C64005C44205A9042FD
:102A400001D9604622520133182BEAD13CBC904692
:102A50009946A246AB46F0BD2C8C0108AC8B010810
:102A6000848B01081A03000017030000448C01083E
:102A7000260300000F20E000D88B01084A1E0B003F
:102A800010B5092A12D8124A5218013A12788C321B
:102A9000FF325200821891880A2B07D80D4A9B00FA
:102AA000D3589F46E130FF3001F01AFC10BD68306A
:102AB00001F03CF9FAE72C3001F060FEF6E701F096
:102AC000D5FAF3E7B130FF3002F0A8FAEEE7C046DE
:102AD000848B010844760108F0B585B0050010002C
:102AE0006A460F000123D61C0A68013AAD18EC5C57
:102AF000F45401330D2BFAD10C2201A90CF0B6FFCE
:102B00003B680C333B6005B0F0BDC04670B51C009F
:102B10001B680E000C3384B0934203D9013222604B
:102B200004B070BD0C22010001A80CF09FFF002230
:102B300001A805782168B31801325D5401300C2AD0
:102B4000F7D123680C332360EAE7C046F0B583B0C1
:102B5000050010006A460F000123561E0A68013A5C
:102B6000AD18EC5CF4540133092BFAD10822694604
:102B70000CF07CFF3B6808333B6003B0F0BDC046FF
:102B800070B51C001B680D00083384B0934203D954
:102B90000132226004B070BD0100082268460CF0CA
:102BA00065FF0822694602A80CF060FF002202A817
:102BB00001782668AB18013299550130082AF7D1FF
:102BC000236808332360E5E730B583B00B680C0059
:102BD0006946C25CC01843788D1D0A714B71022290
:102BE000280001A90CF042FF2368288802332360E3
:102BF00003B030BD30B585B01C006B460D00991D8B
:102C0000236808800233934203D90132226005B061
:102C100030BD022203A80CF029FF6B4622681B7B03
:102C2000AB5423689C466B465B7B65446B702368A2
:102C300002332360EBE7C04630B5030083B06D4636
:102C400010000A680C00995C9B185B7829710222BD
:102C500001A96B710CF00AFF23680233236003B0F3
:102C600030BDC04630B51C001B680D00023383B078
:102C7000934218D86A46037801A9137143786846CD
:102C8000537102220CF0F2FE6B4622681B78AB54A3
:102C900023689C466B465B7865446B7023680233FF
:102CA000236003B030BD01322260FAE710B582B074
:102CB0000C006A460123D11C2268013A8018C25CCC
:102CC000CA540133052BFAD10422684601A90CF03D
:102CD000CDFE236800980433236002B010BDC046C7
:102CE00070B51C001B6884B004330D000190934242
:102CF00003D90132226004B070BD042201A903A8E7
:102D00000CF0B4FE002303AA10782668E9180133FA
:102D100088550132042BF7D1236804332360EAE796
:102D200030B583B00C006B46D91D23680122C35C0B
:102D30000B706B469D1D28000CF098FE23682878C8
:102D40000133236003B030BD70B584B01C006B4606
:102D50000D00D91D236808700133934203D9013255
:102D6000226004B070BD0F266E44012230000CF0CA
:102D70007DFE33782268AB54236801332360F0E78B
:102D800030B585B06A460D000123D41D0A68013AAA
:102D90008018C25CE2540133092BFAD102A908223F
:102DA00068460CF063FE009801992B6808332B608D
:102DB00005B030BD70B584B0089C15002268009045
:102DC000019108329A4203D90133236004B070BDE7
:102DD0006946082202A80CF049FE002302A90878DF
:102DE0002668EA18013390550131082BF7D1236882
:102DF00008332360EAE7C0460B68C05C0133421E1B
:102E000090410B60C0B2704730B51C68651C95429C
:102E100001D808551A6801321A6030BDF0B587B084
:102E2000050010006A460F000123561E0A68013A89
:102E3000AD18EC5CF4540133192BFAD11822694611
:102E40000CF014FE3B6818333B6007B0F0BDC04681
:102E500070B51C001B680E00103388B0934203D974
:102E60000132226008B070BD0100102268460CF0EB
:102E7000FDFD1022694604A80CF0F8FD002204A80C
:102E800005782168B31801325D540130102AF7D15A
:102E9000236810332360E5E7F0B5ABB00500100000
:102EA0006A460F000123561E0A68013AAD18EC5C11
:102EB000F4540133A92BFAD1A82269460CF0D6FDAF
:102EC0003B68A8333B602BB0F0BDC04670B51C001A
:102ED0001B680D00043382B0934218D86A460388F9
:102EE00001A9938043886846D38004220CF0BEFD7C
:102EF0006846002201782668AB18013299550130E6
:102F0000042AF7D123680433236002B070BD013274
:102F10002260FAE7F0B589B0050010006A460F009C
:102F20000123D61C0A68013AAD18EC5CF454013355
:102F30001D2BFAD11C2201A90CF098FD3B681C3313
:102F40003B6009B0F0BDC04630B51C001B680D00E9
:102F5000023383B0934218D86A46037801A91371EB
:102F600043786846537102220CF080FD6B4622685C
:102F70001B78AB5423689C466B465B7865446B704A
:102F800023680233236003B030BD01322260FAE7C8
:102F9000F0B585B0050010006A460F000123561EEB
:102FA0000A68013AAD18EC5CF4540133112BFAD1E4
:102FB000102269460CF05AFD3B6810333B6005B0A7
:102FC000F0BDC04670B584B01C006B460D00D91D25
:102FD000236808700133934203D90132226004B0A0
:102FE00070BD0F266E44012230000CF03FFD337897
:102FF0002268AB54236801332360F0E770B582B0D8
:1030000005000E0010006A460123D11C3268013A07
:10301000AD18EC5CCC540133052BFAD1042201A984
:103020000CF024FD33680433336002B070BDC04639
:1030300070B51C001B680D00083382B0934203D9A1
:103040000132226002B070BD0822010068460CF017
:103050000DFD6846002201782668AB1801329955AB
:103060000130082AF7D1236808332360EAE7C04615
:1030700030B5030083B06D4610000A680C00995CFF
:103080009B185B782971022201A96B710CF0EEFC90
:1030900023680233236003B030BDC046F0B51E0084
:1030A0001B680F0014338BB0934203D90132326096
:1030B0000BB0F0BD0100142268460CF0D7FC1422BE
:1030C000694605A80CF0D2FC002205A805783368F3
:1030D000BC180132E5540130142AF7D13368143397
:1030E0003360E5E730B583B00C006B46D91D23682B
:1030F0000122C35C0B706B469D1D28000CF0B6FCD2
:103100000020236801332360285603B030BDC04639
:10311000F0B51E001B680F0018338DB0934203D921
:10312000013232600DB0F0BD0100182268460CF08B
:103130009DFC1822694606A80CF098FC002206A8FF
:1031400005783368BC180132E5540130182AF7D1EC
:10315000336818333360E5E710B5FFF7F7FC10BDAF
:10316000F0B51E001B680F00A833D5B0934203D9F9
:103170000132326055B0F0BD0100A82268460CF063
:1031800075FCA82269462AA80CF070FC00222AA827
:1031900005783368BC180132E5540130A82AF7D10C
:1031A0003368A8333360E5E7F0B587B00500100059
:1031B0006A460F000123D61C0A68013AAD18EC5C80
:1031C000F4540133152BFAD1142201A90CF04EFC52
:1031D0003B6814333B6007B0F0BDC046F0B51E003D
:1031E0001B680F001C3389B0934203D9013232604F
:1031F00009B0F0BD1C22010001A80CF037FC002230
:1032000001A805783368BC180132E55401301C2A46
:10321000F7D133681C333360EAE7C046F8B5574648
:103220004546DE464E469846E0B50AAB1D7804009A
:103230006B1E9A4643468B461700002B4AD1033536
:103240003C494068AD0002F0F3FF295902F08AFCC6
:103250003B68061C99464946584603F00FF9051C81
:10326000608803F0EFFA344902F01AFE0021834629
:10327000281C02F037FB002842D03049606802F079
:10328000D7FFC023E15802F00BFE594602F0D0FFF1
:10329000041C011C281C02F025FB002818D14946FB
:1032A000281C02F05FFC311C041C02F007FB002804
:1032B00000D1261C4346002B03D080231B069C46CE
:1032C00066443E603CBC90469946A246AB46F8BD7B
:1032D000251CE4E780231B065B449B461368802281
:1032E0001206944663443B60013512494068AD00C4
:1032F000994602F09DFF295903F0C0F8061CAAE781
:1033000080231B065B441800534630339B00E418AF
:10331000616802F0C5FD11F033FA011CFE20800542
:1033200003F0ACF8011C281C02F082FF3B68051C6E
:103330009946B4E7C178C63D0000C842CBBECB3E3B
:10334000F8B54746CE46012380B50370334B344A67
:10335000C3620023C36303644364324B0263836329
:10336000314B324A836460239946314B0500040097
:1033700042638144984600202E4F2F4E4C3503F077
:1033800061FA434628606861A862EB63043501373F
:1033900004364D4504D00020336838569846EEE791
:1033A0000022CE23D421E25200236350043962521A
:1033B00008316350236263626360A360E36023614A
:1033C00063611E4BA262A3831D4BA261D9399C325B
:1033D0006180A3501B4AA131625004316350043113
:1033E0006250043162500431635004316250B8229B
:1033F000A350BC23144A2000E250144A0433E25084
:10340000134A0433E250134A0433E25002220433D5
:10341000E2540CBC90469946F8BDC046894100BFB5
:10342000CDCCCCBEE17A94BECDCCCCBD000040BFAB
:1034300052499DBCA48B0108908B01080202000038
:103440000000A04100002042D85500640000E14483
:1034500000C0A8474031774CF0B5D6464F464646A7
:10346000C0B586B004AB0500007800930F2305AF0C
:103470006B4401970E0001F02BFE6B460F2018568F
:10348000002817D1C4239A46234B01249846BE2313
:103490009946AA44A944072C36D84246A300D358DB
:1034A0009F462A0039003000D432FFF74FFB6B46AD
:1034B0000F20185606B01CBC90469946A246F0BD97
:1034C0002A00390030002C32FFF762FD0134E4B2EB
:1034D000E1E739003000FFF7E9FBC023E850F5E7EA
:1034E0002A0039003000BC32FFF7C2FDEEE72A00A7
:1034F00039003000CE32FFF781FDE7E74A46390058
:103500003000FFF799FBE1E7524639003000FFF742
:103510001DFB072CDAD1CAE770760108F0B5DE464C
:1035200057464E464546E0B595B01E1C0A931EAB65
:10353000151C1A781FAB05921A7820AB08921A78DE
:1035400003910992239AD24904004068924602F0FE
:103550006FFE311C0290281C01F0F2FDCD4E0C9044
:10356000311C02F0BFF9002800D10C960CA801F024
:1035700001FF962263885200934200D154E1E12278
:10358000D200934200D189E1642B00D166E1210091
:10359000E36A0C220693E36B4C31079311AB1800DE
:1035A0009B460CF063FA21000FA8583108220490C2
:1035B0000CF05CFA9C23E3589946AC23E1580D913A
:1035C000484601F0BDFD0D900DA801F0D3FEA668A0
:1035D0000C9B0021301C984602F06AF900283DD16E
:1035E0000D99404602F04AFF011C071C02F020FE24
:1035F000119902F01DFE5B460B905968381C02F0D1
:1036000017FE011C0B9802F0ADFA5B46996802F0B8
:10361000A9FA4946071C281C02F030FF9E4902F017
:103620003FFC0F9902F004FE049B596802F09AFADD
:10363000011C381C02F0FCFDFF218905071C02F06B
:1036400051F9002800D0ECE0FC21381C890502F07B
:1036500035F9002804D0FC27BF0501E0FE27BF058F
:103660000799281C02F0E4FD8B4902F019FC069929
:103670008146404602F0DCFD011C484602F072FA29
:10368000011C039802F0FAFE311C02F0F7FE391C0F
:1036900002F0CEFD311C02F065FA53461860BD23DE
:1036A000071CE05603F0CEF8011C281C02F010F9AC
:1036B000002866D0BC23E05603F0C4F8011C281C87
:1036C00002F01AF900285CD0BF23E05C03F0BAF8DE
:1036D0000A9D011C281C02F0FBF8002851D0BE23D3
:1036E000E05C03F0AFF8011C281C02F005F9089B10
:1036F000002846D0002B44D0099B002B45D1002147
:10370000219802F0D5F8002800D1C5E1238D002BC7
:1037100000D0BAE108339846A044A14646460125A8
:1037200054460021306802F0C3F8002801D0376009
:1037300027680021B06802F0BBF800280AD002997F
:10374000306802F09BFE391C02F0CCF8002801D052
:10375000B76027684846391C002332000095FFF700
:103760005DFD0021B06802F0A3F8002800D183E1DC
:103770000436022D00D07CE1A24653464C461F6819
:10378000A9E0099B002B00D1A2E0A6680021301C13
:1037900002F08EF8002801D053461E6825690021EA
:1037A000281C0D9602F084F8002804D00299301CE1
:1037B00002F064FE051CE668236A0021301C0F95A8
:1037C000119302F075F8002801D053461E68656910
:1037D0000021281C0E9602F06BF8002804D00299F4
:1037E000301C02F04BFE051C5B46626A049E5A6068
:1037F0000DA90822229875600CF038F92298310042
:10380000082208300CF032F922980822594610306C
:103810000CF02CF915B03CBC90469946A246AB463C
:10382000F0BDFF27BF051BE72100636B0C22069349
:10383000636C7431079311AB18009B460CF016F9BA
:1038400021000FA88031082204900CF00FF9A42366
:10385000E3589946B423E1580D91B1E62100A36BDA
:103860000C220693A36C8831079311AB18009B467A
:103870000CF0FCF821000FA89431082204900CF001
:10388000F5F8A823E3589946B823E1580D9197E637
:10389000C178C63D0AD7233C0000C8422100236BF3
:1038A0000C220693236C6031079311AB18009B46E2
:1038B0000CF0DCF821000FA86C31082204900CF009
:1038C000D5F8A023E3589946B023E1580D9177E647
:1038D00008339846A0441C239C46A44463460393A3
:1038E00010239C46A444634606935B464546A34684
:1038F00009932B68391C181C984601F0E9FFAC6845
:10390000002800D085E0391C201C01F0F5FF0028BC
:103910007FD100230793391C404602F0AFFD211CE4
:10392000061C381C02F0AAFD0021071C301C01F007
:10393000C5FF002800D000260021381C01F0BEFF82
:10394000002800D000270021201C01F0B1FF029BBD
:103950009946002875D0391C301C10F0B7FD011CA9
:1039600002F000F9494602F09BFAFE218905041C89
:1039700001F0B8FF002801D0FE24A405059B002B10
:103980004AD0089B002B47D05749A86901F090FF07
:10399000002867D0FE20211C800502F06FFD011C6D
:1039A00002F046FCFD21890502F042FC4F4902F07D
:1039B0003FFC4F4902F0D6F8061CAF682868391C56
:1039C00002F05CFD311C029E041C301C02F030FC35
:1039D000311C02F0C7F8011C201C01F06FFF002809
:1039E00038D10021381C01F063FF002832D1079B39
:1039F000002B39D1039A1378FF2B72D00133DBB23D
:103A000013705946CC228A5C9A426AD98023DB051E
:103A100008E0012307937EE75A46CC23D35C039A40
:103A200013700023AB61039B043501330393069BA2
:103A3000AB4202D053461F685BE7099B5C469B463E
:103A4000A3E6211C404602F019FD029910F028FD62
:103A5000814680E75A46CC23D35C039A1370FE2339
:103A60009B05DFE7234EA8E7039B18708023DB0547
:103A7000D8E70225276854E632000095012348461E
:103A800021680832FFF7CAFB72E6628D9B1A238514
:103A900008239846A0441EE7219802F0B3FE0300D5
:103AA00063335B00E318268D0500D8883335301A60
:103AB00080B202F015FFAD006519071C686810F0B0
:103AC0005FFE011C381C02F0EBF910F035FD01F02F
:103AD0006FFF53461F6808239846361A2685A04470
:103AE000F9E6014B9EE7C04600004040CDCC4C3E7D
:103AF000CDCCCC3D9A99993EF0B54646D6464F4638
:103B0000C0B584B090466A46D61D072207003270C1
:103B1000007832000D0001F005FB33780390002B94
:103B200017D02E4B01249946D4239A46BA44072C29
:103B300009D84A46A300D3589F464246290050461A
:103B400003ABFFF71DF801343378E4B2A342EED2A1
:103B500003980A2169440880022202A80BF086FF1C
:103B60006B461B7A03982B706B465B7A6B7004B0C4
:103B70001CBC90469946A246F0BD3800424629003A
:103B800003ABBE30FFF76EF8DDE7C0234246F858BE
:103B9000290003ABFFF7A4F8D5E738004246290017
:103BA00003ABC430FEF7ECFFCDE7380042462900F6
:103BB00003ABCE30FFF78AF9C5E73800424629004B
:103BC00003AB2C30FFF744F9BDE73800424629002B
:103BD00003ABBC30FFF7B8F9B5E7C04690760108F3
:103BE000F0B54646D6464F46C0B584B090466A46C4
:103BF000D61D0B2207003270007832000D0001F054
:103C000091FA33780390002B17D03B4B012499464F
:103C1000CC239A460B2C0AD84A46A300D3589F4679
:103C200053464246F85C290003ABFFF78DF8013498
:103C30003378E4B2A342EDD203980A2169440880A4
:103C4000022202A80BF012FF6B461B7A03982B701E
:103C50006B465B7A6B7004B01CBC90469946A246DA
:103C6000F0BD42462900786803ABFFF739F8DEE77C
:103C700042462900788D03ABFEF7BCFFD7E74246EA
:103C80002900388D03ABFEF7B5FFD0E73800424678
:103C9000290003AB2030FEF773FFC8E73800424627
:103CA000290003AB1C30FEF7DDFFC0E742462900C8
:103CB000788803ABFEF79EFFB9E73800424629003B
:103CC00003AB1030FEF75CFFB1E738004246290035
:103CD00003AB0830FEF754FFA9E742462900788B72
:103CE00003ABFEF787FFA2E742462900388B03AB00
:103CF000FEF780FF9BE7C046B07601080023002254
:103D000001210362436243608360C36003614361D6
:103D1000054B82628383373B82614942FF3B02321B
:103D20004180C2547047C0460202000070B5374B54
:103D300005000C0082B0994248D043888B4245D0A0
:103D4000E1234180DB0099425DD041D864295AD0FB
:103D500096235B00994241D12D4B019364212000B1
:103D600001F0E6FB80B2688501A801F003FB019831
:103D700010F046FB274902F093F86860002C16D03B
:103D80002100254801F0D4FB210086B2224801F031
:103D900055FC8BB2002B32D0012162080C40141963
:103DA000A3422CDB0136B0B202F09AFD00E01B48C2
:103DB000019001A801F0F0FA0199081C01F0D2FE6F
:103DC00010F022FB01F0F4FDCC23E85402B070BDEA
:103DD000114B994202D1124B0193BFE7104B642162
:103DE0002000019301F0A4FB642186B2200001F0C1
:103DF00025FC89B23129B1D90136B0B2B3E7300020
:103E000002F06EFDD4E7074B0193A7E7FFFF000028
:103E10000AD7233F502C633E3075000000FF7F47D8
:103E2000304C463F9A99193FF0B5D6464F46464624
:103E3000C0B586B004AB0500007800930F2305AF32
:103E40006B4401970E0001F043F96B460F201856A2
:103E5000002817D108239A462E4B01249846202388
:103E60009946AA44A9440B2C4CD84246A300D358E7
:103E70009F4639003000FEF753FFCC23E8546B46D1
:103E80000F20185606B01CBC90469946A246F0BDBD
:103E900039003000FEF70AFF68600134E4B2E2E75F
:103EA00039003000FEF790FE6885F6E739003000F3
:103EB000FEF78AFE2885F0E74A4639003000FEF713
:103EC00045FEEAE72A00390030001C32FEF7B4FE56
:103ED000E3E739003000FEF777FE6880DDE7390060
:103EE0003000FEF771FE6883D7E739003000FEF737
:103EF0006BFE2883D1E72A00390030001032FEF72C
:103F000025FECAE7524639003000FEF71FFE0B2C93
:103F1000C3D1B4E7E0760108032310B504000370B1
:103F2000043001F0C5FA200001F042FA200010BD73
:103F300070B586B004AB0400007800930F2305AE83
:103F40006B4401960D0001F0C3F86B460F20185624
:103F5000002801D006B070BD2200280031002032B8
:103F6000FEF7BAFD6B460F201856F3E7F0B547464B
:103F7000CE4680B50C1C05008BB02949201C171CAF
:103F80001E1C01F0A5FC002800D0254C002128694A
:103F900001F08EFC002838D103AB984640460394CC
:103FA00001F0E8F90C239946042403980597069636
:103FB000A9444B461E5906AB311C1F1902F05EFA8C
:103FC000295902F035F9311C01F0CCFD0434386078
:103FD000102C02D043461859EBE728000C2207A901
:103FE00010300BF043FD079B0193019A129B1A605E
:103FF000089B0193019A139B1A60099A149B1A60FB
:104000000BB00CBC90469946F0BD03AB1800984627
:10401000039401F0AFF9039B6F612B61AE61BDE7C3
:104020000000204170B588B003AB04000078009315
:104030000B2304AE6B4401960D0001F049F86B466A
:104040000B201856002801D008B070BD31002800A0
:1040500005AAFEF741FD20000C22103005A90BF047
:1040600005FD6B460B201856EEE7C046F0B5CE4670
:10407000474680B5060085B0080002F031FC011CFF
:10408000134801F00DFFFC21890502F0D1F82C2323
:10409000350099468046203501AFB1444146286835
:1040A00001F0FEFEFE218905041C01F01BFC002826
:1040B00001D0FE24A405043510C74D45EED1301DB6
:1040C00001A901F099F905B00CBC90469946F0BDE4
:1040D0000000C84210B504000170043001F0F4F98A
:1040E000200001F07DF9200010BDC04670B586B0FB
:1040F00004AB0400007800930F2305AE6B440196D7
:104100000D0000F0E5FF6B460F201856002801D087
:1041100006B070BD2200280031001032FFF71CF8F5
:104120006B460F201856F3E7F0B5C646040000B5FD
:104130000F1C181C002190461D1C01F0C9FB002813
:1041400033D11B49281C01F0CDFB00282BD1A668D8
:104150000021301C01F0ACFB002800D03E1C311CBB
:10416000381C02F08BF9616802F062F8311C01F032
:10417000F9FCA060061C2000291C103001F002F997
:10418000291C01F0EFFC4146021C301C01F04AF8EA
:104190000749041C01F0A6FB002800D0044C201C99
:1041A00004BC9046F0BD024DD1E7024DCFE7C046BA
:1041B0000000C84217B7D138F0B5C64600B584B084
:1041C00090466A46D51D012207002A7000782A0011
:1041D0000E0000F0A7FF2B780390002B15D00124D0
:1041E000103704E001342B78E4B2A3420CD3012C45
:1041F000F8D103AB424631003800FEF719FF013415
:104200002B78E4B2A342F2D203980A2169440880D1
:10421000022202A80BF02AFC6B461B7A039833702B
:104220006B465B7A737004B004BC9046F0BDC04628
:10423000F0B5C64600B584B090466A46D51D012249
:1042400007002A7000782A000E0000F06BFF2B7820
:104250000390002B14D0012404E001342B78E4B245
:10426000A3420CD3012CF8D103AB42463100B8680D
:10427000FEF736FD01342B78E4B2A342F2D2039864
:104280000A2169440880022202A80BF0EFFB6B466A
:104290001B7A039833706B465B7A737004B004BC6E
:1042A0009046F0BD70B586B004AB04000078009372
:1042B0000F2305AE6B4401960D0000F009FF6B461D
:1042C0000F201856002801D006B070BD310028001C
:1042D000FEF7ECFC6B46A0600F201856F4E7C046D2
:1042E000F0B5060083B0080002F0FAFA011C1B4882
:1042F00001F0D6FDFC21890501F09AFF011C184848
:1043000001F0CEFDFE21890510F0E0F81549041CEE
:1043100001F08EFF10F034F9011C01F089FF051C3B
:10432000011C01F085FF291C01F01CFC019001A873
:1043300001F032F8FE21201C8905019F01F0B8FA36
:10434000002807D1291C381C02F098F8011C01F044
:1043500009FC041C746003B0F0BDC0460000C842F4
:1043600099D4503CDB0FC93F81220223D205026160
:10437000104A03704261C8220023520002830E4A91
:104380000371C261FC22F533FF334380143BFF3BD2
:10439000C380C83B0372002392050262FA22C36005
:1043A0008362C362054B92000363054B82844363BF
:1043B000836370470000204100007041EC5185424A
:1043C0000000C841F8B5DE4657464E464546E0B5C2
:1043D00098460A9B1500994613680400181C9B46D2
:1043E0000F1C02F04BF86B68061C391C181C9A460F
:1043F00002F044F8E968071C504602F03FF8011C3F
:10440000381C01F04DFD8246608802F069FAA96807
:10441000071C584602F032F8011C301C01F040FD28
:104420008346E08802F05CFA011C584601F000FF68
:104430008346207A02F054FA011C584601F092FBA0
:104440008346207902F04CFA594610F029F8011CF5
:10445000381C10F03BF8E168071C301C01F0E8FE46
:10446000061C207A02F03CFA011C301C01F07AFB99
:10447000061C207902F034FA311C10F011F8FE21EC
:10448000061C8905404601F019FA00285ED16763D1
:10449000A6634B461F602A69311C5A600B9B1E6045
:1044A0002A695A60206B01F027FA002844D0208B3B
:1044B00002F016FA2169071C301C01F0B9FE391C04
:1044C00001F050FB80464146381C0FF0E9FF0C9B81
:1044D00018602A695A60A08C02F002FAA16A071CCF
:1044E000301C01F0A5FEE16A01F03CFB011C3448E0
:1044F00010F0DAF9011C33480FF0D2FF011C381C10
:104500000FF0E4FF0D9B304918602A6950465A604D
:1045100001F08EFE2C49041C01F0E4F9002800D0C3
:10452000294C0E9B0E9A1C606B6953603CBC9046F4
:104530009946A246AB46F8BD6169301C01F078FE91
:104540008046208B02F0CCF9071CBCE74146404670
:1045500001F06EFE636B8046391C181C9B4601F00F
:10456000ADF9002810D04146381C01F061FE071C4F
:10457000FE204146800501F081FF594601F058FEBA
:10458000391C01F0EFFA071CA36B311C181C9B4669
:1045900001F094F9002800D17BE74146301C01F07E
:1045A00047FE061CFE204146800501F067FF594684
:1045B00001F03EFE311C01F0D5FA061C69E7C04649
:1045C00000002041CDCCCC3D0000C842F0B54646AD
:1045D000D6464F46C0B584B090466A46D61D0822DE
:1045E00007003270007832000D0000F09BFD337838
:1045F0000390002B17D02E4B0124994610239A4686
:10460000BA44082C09D84A46A300D3589F464246CC
:104610002900386A03ABFEF763FB01343378E4B258
:10462000A342EED203980A2169440880022202A81C
:104630000BF01CFA6B461B7A03982B706B465B7A67
:104640006B7004B01CBC90469946A246F0BD424631
:104650002900F86903ABFEF743FBDEE74246290079
:10466000388B03ABFEF7C6FAD7E74246290050461F
:1046700003ABFEF7DDFCD0E742462900788803ABA8
:10468000FEF7B8FAC9E742462900387903ABFEF7CE
:104690005BFBC2E742462900387A03ABFEF754FBC6
:1046A000BBE742462900F88803ABFEF7A3FAB4E75C
:1046B00010770108F0B5C64600B584B090466A464A
:1046C000D51D022207002A7000782A000E0000F093
:1046D00029FD2B780390002B1CD001240CE0022C28
:1046E00005D142463100B86B03ABFEF7F9FA01344D
:1046F0002B78E4B2A3420CD3012CF0D103AB424699
:104700003100786BFEF7ECFA01342B78E4B2A34267
:10471000F2D203980A2169440880022202A80BF011
:10472000A5F96B461B7A039833706B465B7A7370FE
:1047300004B004BC9046F0BD70B586B004AB040074
:10474000007800930F2305AE6B4401960D0000F036
:10475000BFFC6B460F20185600280CD131002800F2
:10476000FEF7A4FA310060632800FEF79FFA6B465B
:10477000A0630F20185606B070BDC046F0B5CE46F7
:10478000474680B52C4B04000D0083B0994204D1FC
:1047900003B00CBC90469946F0BD037AC088994698
:1047A000484402F04FF8236AE76998469623061CAE
:1047B0005B009D423CD0E123DB009D4235D0642D5F
:1047C00033D01E4B0093684600F0D4FD484602F0FB
:1047D00087F8011C301C01F051FE051C00980FF0F9
:1047E0000FFE011C281C01F05BFBE06001A8019793
:1047F00000F0C0FD43466846009300F0BBFD009901
:10480000019801F03BFE291C01F04AFBA06201A8BF
:10481000019700F0AFFDA16A301C01F009FD011CF9
:10482000019801F02BFEE062B2E7054B0093CAE766
:10483000044B0093C7E7C046FFFF0000304C463FE3
:104840009A99193F0AD7233FF0B5CE46474680B51F
:1048500087B004AB0500007800930F2305AF6B44CD
:1048600001970E0000F034FC6B460F20185600280C
:1048700013D1234B0124984610239946A944082CB0
:1048800036D84246A300D3589F4639003000FEF781
:104890000DFA28626B460F20185607B00CBC9046E4
:1048A0009946F0BD39003000FEF700FAE8610134A6
:1048B000E4B2E4E739003000FEF786F92883F6E732
:1048C00039003000FEF780F9E880F0E73900300069
:1048D000FEF77AF96880EAE74A4639003000FEF7C9
:1048E0003BFCE4E739003000FEF71AFA2872DEE7F5
:1048F00039003000FEF714FA2871082CD7D1C9E727
:104900003477010809230370144B01224360144BD0
:1049100052428361134BC362134B036400238360D1
:10492000C36103634364C3600362436383640F4BE7
:1049300003610F4B43620F4B83630F4BC3640F4BF9
:1049400043610F4B83620F4BC3630F4B03650F4BE8
:1049500003660F4B8265C3657047C04607F0963DFE
:104960000000A040E63F4CC0B15083401C7CE13DBC
:10497000CDCC0C3E91ED3CBF5DFEE33E3480D73F95
:1049800067D5273EFB3A403F363C85BF000040409C
:10499000FFFFFF7FF0B5D6464F464646C0B586B00E
:1049A00004AB0600007800930F2305AF6B4401971A
:1049B0000D0000F08DFB6B460F20185600282AD101
:1049C00040239A46331D9846182301249946B24441
:1049D000B144042C0FD0042C13D8022C21D0032C6A
:1049E00025D13200390028002C32FEF7DDFB0134DE
:1049F000E4B2042CEFD1524639002800FEF7D4FB74
:104A0000F5E7052C13D139002800FEF74FF96B4666
:104A100030660F20185606B01CBC90469946A24638
:104A2000F0BD4A4639002800FEF7BEFBDFE74246EC
:104A300039002800FEF7B8FBD9E7C046F0B54E466E
:104A400045465746DE46E0B51500E12283B01C001E
:104A50000CABC0CB1B8880468946D200934200D164
:104A600077E02CD93C4A934235D001213B4A8A4613
:104A7000934209D101224146394B5242886DC96D9A
:104A800000F068FC002829D000260122280021001F
:104A9000334B524200F05EFC002802D143469D6534
:104AA000DC65311C484601F0E9FC0F9901F0E6FC99
:104AB00003B03CBC90469946A246AB46F0BD642B81
:104AC00006D09622042152008A469342D2D0DBE7D8
:104AD00005239A46CEE702239A46CBE730003900F9
:104AE00043469A6DDB6D801A994101F007F8002268
:104AF0001C4B02F073FA53469B009A46C2440600D0
:104B00000F0003F05FFD53461968834601F090FBE8
:104B10005346596901F026F853460190996A584660
:104B200001F086FB32003B0083463900300002F082
:104B300057FE03F047FD011C584601F013F8534699
:104B4000D96B01F00FF8011C019801F0A9F9061CBE
:104B50009BE7066E99E7C0467017000030750000AD
:104B6000FFFFFF7F65CDCD41F0B54646D6464F46A7
:104B7000C0B584B090466A46D61D05220700327043
:104B8000007832000D0000F0CDFA33780390002B4E
:104B900017D0254B0124994640239A46BA44052C48
:104BA00009D84A46A300D3589F4642462900386E8A
:104BB00003ABFEF795F801343378E4B2A342EED2AA
:104BC00003980A2169440880022202A80AF04EFFD5
:104BD0006B461B7A03982B706B465B7A6B7004B044
:104BE0001CBC90469946A246F0BD380042462900BA
:104BF00003AB1830FEF752FADDE742462900504673
:104C000003ABFEF74BFAD6E738004246290003AB68
:104C10002C30FEF743FACEE742462900381D03AB9D
:104C2000FEF73CFAC7E7C04658770108F0B5C6461C
:104C30000F259046012200B586B06D442A7007000A
:104C40002A0000780E0000F06DFA2B780590002BFA
:104C500016D0012404E001342B78E4B2A3420ED331
:104C6000012CF8D1B86DF96D05AB009332004346C5
:104C7000FEF7A0F801342B78E4B2A342F0D20598F5
:104C8000122169440880022204A80AF0EFFE6B4654
:104C90001B7C059833706B465B7C737006B004BC5C
:104CA0009046F0BD70B586B004AB04000078009368
:104CB0000F2305AE6B4401960D0000F009FA6B4618
:104CC0000F201856002801D006B070BD3100280012
:104CD000FEF756F86B46A065E1650F201856F3E71E
:104CE000052303700023036143618361074B30B5E3
:104CF000C361012300250024002203852933846039
:104D0000C56004624562C25430BDC046C9B28B530F
:104D1000F8B5474614001D008268C368CE462900D6
:104D200080B507002000801A99417E6A8E4203DB1D
:104D300000D172E0AB4267DD002300223B612A23F1
:104D4000FA5400239846BC60FD602923FE5C994616
:104D5000002E10D1BA68FB6820002900801A994102
:104D600000F098FE796900F0FDFEB969786100F005
:104D7000C3FD002843D14346002B10D1BA68FB681D
:104D800020002900801A994100F084FE396900F062
:104D9000E9FEF969386100F0AFFD002822D1220058
:104DA0002B1E25DDFB60089BBA601E702A23099A22
:104DB000FB5C1370002B06D1FC690021201C00F065
:104DC00077FD002807D0FE230A9A9B0513600CBCD0
:104DD00090469946F8BD3869211C01F061F80A9B9C
:104DE0001860F4E72A230122FA5422002B1ED9DC92
:104DF000002D01D1002CD5D101220023D2E70123BF
:104E00004A460136BB54B6E7AB420ED01A432A23BA
:104E1000FB5C9846002A98D195E73E6A864200D20C
:104E20008AE7AB4200DD87E7EEE7A242EED983E7EF
:104E3000F0B54746CE4680B585B090466A46D51D4A
:104E4000022207002A7000782A000E0000F06AF99A
:104E50002B780390002B1FD02823012499460DE0C6
:104E6000022C06D14B464246F856310003ABFEF702
:104E7000A9F801342B78E4B2A3420CD3012CEFD172
:104E800003AB42463100B869FDF72AFF01342B78A5
:104E9000E4B2A342F2D203980A21694408800222B4
:104EA00002A80AF0E3FD6B461B7A039833706B4649
:104EB0005B7A737005B00CBC90469946F0BDC04655
:104EC000F0B54646D6464F46C0B50F269046052259
:104ED00086B06E4432700700320000780D0000F09A
:104EE00021F933780590002B17D0224B01249946E5
:104EF0002A239A46052C0AD84A46A300D3589F462F
:104F00005346F85C4246290005ABFDF77DFF0134AE
:104F10003378E4B2A342EDD20598122169440880A7
:104F2000022204A80AF0A2FD6B461B7C05982B7098
:104F30006B465B7C6B7006B01CBC90469946A246E3
:104F4000F0BD42462900786905ABFDF7C9FEDEE7F2
:104F50002923D6E742462900386905ABFDF7C0FE94
:104F6000D5E705AB00932A00B868F9684346FDF71A
:104F700021FFCCE770770108F0B5C64600B586B0D2
:104F800004AB0500007800930F2305AF6B44019735
:104F90000E0000F09DF86B460F201856002827D110
:104FA000292301249846042C0ED0042C15D8022C59
:104FB00022D0032C28D139003000FDF777FE0134D0
:104FC0002861E4B2042CF0D139003000FDF714FF61
:104FD00043460134E854E4B2F4E739003000052CCC
:104FE00014D1FDF709FF2A23E8546B460F20185609
:104FF00006B004BC9046F0BD39003000FDF756FE07
:1050000001346861E4B2DDE739003000FDF7B8FE35
:105010000134A860E960E4B2D4E7C046164B70B52D
:1050200005000C0099421CD02823C356134A4B4359
:105030005808C0180021002300F08CFC9623286239
:1050400069625B009C4208D0E123DB009C4206D0F1
:10505000642C02D00A4BEB6170BD0A4BFBE70A4B94
:10506000F9E70023002203612A23C254002200230F
:105070008260C360F0E7C046FFFF000080969800A2
:10508000C9B28B53C9B28B5276845F5170B586B06A
:1050900004AB0400007800930F2305AE6B44019627
:1050A0000D0000F015F86B460F20185600280DD1A2
:1050B00031002800FDF7FAFD3100A0612800FEF75D
:1050C00011F82823E0546B460F20185606B070BD27
:1050D000F0B5C6461C00002300B582B0089D099EAD
:1050E000804633600F0023702B60032A05D8983365
:1050F000237002B004BC9046F0BD04236A463360BE
:105100000B78961D13714B783000537101A9022260
:105110000AF0ACFC33882B60BB784345E9D09C2374
:105120002370E6E710B51478002C01D09C4203D21E
:1051300000230020137010BD88700420FBE7C046D8
:1051400070B50E1C1349041C01F072F81249051CBD
:10515000201C00F007FD011C281C00F0A1FE0FF030
:105160000FFB0E49051C301C01F062F80C4900F0E1
:1051700097FE291C01F05CF80A49051C201C00F070
:10518000F1FC011C281C00F08BFE074901F050F8CF
:1051900070BDC046C3F58C41B81E73438195C340B2
:1051A0000000C8423393884333B3584370B50400BA
:1051B0000D000FF085F80022174B00F045FB00288A
:1051C00011D0002220002900144B00F05BFB0022CC
:1051D00000280BD120002900114B00F049FB0028CA
:1051E0000ED0002400252900200070BD20002900D9
:1051F0000A4B01F0B7FB0FF067F804000D00F2E76F
:10520000002220002900054B02F058FD0EF0C4FFDB
:1052100004000D00E7E7C046000030430000E03F17
:105220000000E0BF70B5041C82B00D1C101C0021F2
:10523000161C00F043FB002864D13349301C00F0F9
:1052400051FB002859D13049301C00F029FE019053
:1052500001A800F087F82D49201C00F0E9FF2C4937
:10526000061C201C00F07EFC011C301C00F018FE07
:10527000019900F077FC2649041C00F0D9FF211C9D
:10528000061C224801F0FAF8011C301C00F008FE50
:105290001E49041C019000F0CBFF1D49061C201C78
:1052A00000F060FC011C301C00F0FAFD1749041CE2
:1052B000281C00F0BDFF1649061C281C00F052FCFB
:1052C000011C301C00F0ECFD011C201C01F0D6F884
:1052D0000FF056FA0C4900F0ABFF0B49041C00F02C
:1052E00001FB00280CD10021201C00F0FBFA002853
:1052F00000D10024201C02B070BDFE208005A6E76E
:10530000014CF7E70020A2E70000C842C3F58C413A
:10531000B81E734370B5002915D0FF250B4B0C4EFA
:1053200041180478013063402C001C406400345B59
:105330001B0A63408142F4D1DB4399B2090ADBB214
:105340001370517070BD00210023F9E7FFFF0000CA
:105350005C8C010850405940084342425041C0B261
:105360007047C04610B5040000680FF039FA20609D
:1053700010BDC04610B5040000680FF063FA20604D
:1053800010BDC04610B50400081C216800F050FF95
:10539000616800F0E7FB10BD10B5040000680FF075
:1053A00011FB206010BDC04610B500F095F810BD8F
:1053B000094B017F0362094B10B5436283620029E8
:1053C00008D00123002401339A008218DBB29460D4
:1053D0009942F8D210BDC0460AD7A33C0AD7233B56
:1053E000002303614361037B002B03D0012BFDD815
:1053F000002383607047C046F0B545468846DE46C8
:1054000057464E464346E0B5284987B0814618685E
:1054100000F00EFF434625490090586800F008FF51
:10542000434622490190986800F002FF6D460290C1
:1054300003AE684600F05CF8B2462F003968081CDD
:1054400000F0F6FE041C011C00F0F2FE211C00F02E
:1054500089FB534610C701C39A46BE42EED13000C5
:10546000FFF7A2FF00243368FE219A462B688905C6
:105470009B4643461F59381C00F01AFA002807D1F2
:105480005946504600F0FAFF011C00F06BFB071C68
:105490004B461F510434043604350C2CE3D107B0BD
:1054A0003CBC90469946A246AB46F0BDDB0FC93FD7
:1054B0000323FC220376002392050260C36042604E
:1054C000036182604361704701230372FC239B05E3
:1054D000036000234360704770B5050004000C357D
:1054E00020680FF06FFA01C4AC42F9D170BDC0461C
:1054F00070B5050004000C3520680FF041F801C4B8
:10550000AC42F9D170BDC04602B4714649084900A9
:10551000095C49008E4402BC7047C04603B4714622
:10552000490840004900095E49008E4403BC7047A9
:10553000002243088B4274D303098B425FD3030AD2
:105540008B4244D3030B8B4228D3030C8B420DD3E5
:10555000FF22090212BA030C8B4202D31212090273
:1055600065D0030B8B4219D300E0090AC30B8B42B1
:1055700001D3CB03C01A5241830B8B4201D38B035F
:10558000C01A5241430B8B4201D34B03C01A524104
:10559000030B8B4201D30B03C01A5241C30A8B4247
:1055A00001D3CB02C01A5241830A8B4201D38B0232
:1055B000C01A5241430A8B4201D34B02C01A5241D6
:1055C000030A8B4201D30B02C01A5241CDD2C30948
:1055D0008B4201D3CB01C01A524183098B4201D3C4
:1055E0008B01C01A524143098B4201D34B01C01AAF
:1055F000524103098B4201D30B01C01A5241C30827
:105600008B4201D3CB00C01A524183088B4201D395
:105610008B00C01A524143088B4201D34B00C01A81
:105620005241411A00D20146524110467047FFE7ED
:1056300001B5002000F0F0F802BDC0460029F7D007
:1056400076E7704703460B437FD4002243088B4222
:1056500074D303098B425FD3030A8B4244D3030BF9
:105660008B4228D3030C8B420DD3FF22090212BABE
:10567000030C8B4202D31212090265D0030B8B423A
:1056800019D300E0090AC30B8B4201D3CB03C01A24
:105690005241830B8B4201D38B03C01A5241430BFF
:1056A0008B4201D34B03C01A5241030B8B4201D3EF
:1056B0000B03C01A5241C30A8B4201D3CB02C01A5A
:1056C0005241830A8B4201D38B02C01A5241430AD2
:1056D0008B4201D34B02C01A5241030A8B4201D3C1
:1056E0000B02C01A5241CDD2C3098B4201D3CB0168
:1056F000C01A524183098B4201D38B01C01A524117
:1057000043098B4201D34B01C01A524103098B421A
:1057100001D30B01C01A5241C3088B4201D3CB0005
:10572000C01A524183088B4201D38B00C01A5241E8
:1057300043088B4201D34B00C01A5241411A00D298
:1057400001465241104670475DE0CA0F00D0494201
:10575000031000D34042534000229C4603098B4271
:105760002DD3030A8B4212D3FC22890112BA030AF9
:105770008B420CD3890192118B4208D3890192117B
:105780008B4204D389013AD0921100E08909C30900
:105790008B4201D3CB01C01A524183098B4201D302
:1057A0008B01C01A524143098B4201D34B01C01AED
:1057B000524103098B4201D30B01C01A5241C30865
:1057C0008B4201D3CB00C01A524183088B4201D3D4
:1057D0008B00C01A5241D9D243088B4201D34B00EF
:1057E000C01A5241411A00D20146634652415B1031
:1057F000104601D34042002B00D549427047634612
:105800005B1000D3404201B5002000F005F802BD56
:105810000029F8D016E770477047C046844610004C
:1058200062468C461900634600E0C0461FB501F091
:1058300073FF002801D40021C8421FBD10B501F03C
:10584000C3FE4042013010BD10B501F065FF0028D5
:1058500001DB002010BD012010BDC04610B501F0D5
:105860005BFF002801DD002010BD012010BDC046F7
:1058700010B501F0EBFE002801DC002010BD012076
:1058800010BDC04610B501F0E1FE002801DA00208D
:1058900010BD012010BDC046844608006146FFE7E8
:1058A0001FB500F081FC002801D40021C8421FBDB3
:1058B00010B500F00DFC4042013010BD10B500F0F5
:1058C00073FC002801DB002010BD012010BDC04684
:1058D00010B500F069FC002801DD002010BD01209A
:1058E00010BDC04610B500F019FC002801DC0020F6
:1058F00010BD012010BDC04610B500F00FFC0028FF
:1059000001DA002010BD012010BDC046002B15D1CA
:10591000002A13D1002906DB01DC002806D0002074
:10592000C043410802E080210906002007B4024874
:1059300001A14018029003BDE1FEFFFF03B46846D9
:1059400001B5029800F0F0F8019B9E4602B00CBC35
:105950007047C046F0B5CE46474680B50700994629
:105960003B0C9C4613041B0C1D000E0061460004FA
:10597000140C000C45434B4360436143C0182C0C8E
:1059800020188C46834203D980235B029846C44486
:10599000494679437243030C63442D042D0CC91806
:1059A000000440198918C0BCB946B046F0BDC046D5
:1059B0009E2110B5C905041CFFF79EFF002803D1E6
:1059C000201C00F01FFF10BD9E21201CC90500F007
:1059D00055FD00F017FF80231B069C466044F2E74C
:1059E00070B500220C4B04000D00FFF74BFF0028A0
:1059F00004D12000290002F011FD70BD064B0022E9
:105A00002000290002F05AF902F008FD80231B064D
:105A10009C466044F1E7C0460000E04170B50500D7
:105A20000C000022002328002100FFF70DFF0028B2
:105A300008D12800210000F00FF802000B00100030
:105A4000190070BD80231B06E118280000F004F83F
:105A5000002342428B41F2E770B500220B4B0D0050
:105A6000040001F0BDFEFFF7BBFF060002F03CFDA5
:105A70000022074B01F0B4FE02000B0020002900B9
:105A800002F01CF9FFF7ACFF310070BD0000F03DE3
:105A90000000F041D0B5040001260B002200144F95
:105AA00076420800B6185F418021C9038F4216D2A2
:105AB00010498F4211D002F0E7FC00220E4B01F09A
:105AC0008FFE06000F00200002F00EFD32003B00AA
:105AD00000F048FF02F076FDD0BDB11CEBD95205B5
